{
  "contractName": "Account",
  "abi": [
    {
      "inputs": [],
      "payable": false,
      "stateMutability": "nonpayable",
      "type": "constructor"
    },
    {
      "anonymous": false,
      "inputs": [
        {
          "indexed": false,
          "name": "sender",
          "type": "address"
        },
        {
          "indexed": false,
          "name": "account",
          "type": "string"
        }
      ],
      "name": "AccountUpdate",
      "type": "event"
    },
    {
      "constant": true,
      "inputs": [],
      "name": "getAccount",
      "outputs": [
        {
          "name": "account",
          "type": "string"
        }
      ],
      "payable": false,
      "stateMutability": "view",
      "type": "function"
    },
    {
      "constant": false,
      "inputs": [
        {
          "name": "_account",
          "type": "string"
        }
      ],
      "name": "setAccount",
      "outputs": [
        {
          "name": "success",
          "type": "bool"
        }
      ],
      "payable": false,
      "stateMutability": "nonpayable",
      "type": "function"
    }
  ],
  "bytecode": "0x6060604052341561000f57600080fd5b336000806101000a81548173ffffffffffffffffffffffffffffffffffffffff021916908373ffffffffffffffffffffffffffffffffffffffff16021790555061044d8061005e6000396000f30060606040526004361061004c576000357c0100000000000000000000000000000000000000000000000000000000900463ffffffff168063762d3f0c14610051578063db613e81146100c6575b600080fd5b341561005c57600080fd5b6100ac600480803590602001908201803590602001908080601f01602080910402602001604051908101604052809392919081815260200183838082843782019150505050505091905050610154565b604051808215151515815260200191505060405180910390f35b34156100d157600080fd5b6100d9610283565b6040518080602001828103825283818151815260200191508051906020019080838360005b838110156101195780820151818401526020810190506100fe565b50505050905090810190601f1680156101465780820380516001836020036101000a031916815260200191505b509250505060405180910390f35b600081600160003373ffffffffffffffffffffffffffffffffffffffff1673ffffffffffffffffffffffffffffffffffffffff16815260200190815260200160002090805190602001906101a9929190610368565b507fcf338d7a6f7248d2d8a4d48995b9eda3aad039361ee928ef7dc26a3b12659a903383604051808373ffffffffffffffffffffffffffffffffffffffff1673ffffffffffffffffffffffffffffffffffffffff16815260200180602001828103825283818151815260200191508051906020019080838360005b8381101561023f578082015181840152602081019050610224565b50505050905090810190601f16801561026c5780820380516001836020036101000a031916815260200191505b50935050505060405180910390a160019050919050565b61028b6103e8565b600160003373ffffffffffffffffffffffffffffffffffffffff1673ffffffffffffffffffffffffffffffffffffffff1681526020019081526020016000208054600181600116156101000203166002900480601f01602080910402602001604051908101604052809291908181526020018280546001816001161561010002031660029004801561035e5780601f106103335761010080835404028352916020019161035e565b820191906000526020600020905b81548152906001019060200180831161034157829003601f168201915b5050505050905090565b828054600181600116156101000203166002900490600052602060002090601f016020900481019282601f106103a957805160ff19168380011785556103d7565b828001600101855582156103d7579182015b828111156103d65782518255916020019190600101906103bb565b5b5090506103e491906103fc565b5090565b602060405190810160405280600081525090565b61041e91905b8082111561041a576000816000905550600101610402565b5090565b905600a165627a7a7230582013195e76e4889f303019781b55e03016c12ef847f4b0f5f0e9d4e608319766480029",
  "source": "pragma solidity ^0.4.19;\n\ncontract Account {\n\n  address private owner;\n\n  mapping (address => string) accounts;\n\n  event AccountUpdate(address sender, string account);\n\n  function Account() public {\n    owner = msg.sender;\n  }\n\n  function getAccount() public constant returns (string account) {\n    return accounts[msg.sender];\n  }\n\n  function setAccount(string _account) public returns (bool success) {\n    accounts[msg.sender] = _account;\n    AccountUpdate(msg.sender, _account);\n    return true;\n  }\n\n}\n",
  "sourcePath": "/Users/Admin/Workspace/projects/choratech/choratech-core/contracts/Account.sol",
  "compiler": {
    "name": "solc",
    "version": "0.4.19+commit.c4cbbb05.Emscripten.clang"
  },
  "schemaVersion": "2.0.0",
  "updatedAt": "2018-03-13T13:28:16.604Z"
}