{
  "contractName": "Account",
  "abi": [
    {
      "anonymous": false,
      "inputs": [
        {
          "indexed": false,
          "name": "sender",
          "type": "address"
        },
        {
          "indexed": false,
          "name": "organization",
          "type": "address"
        }
      ],
      "name": "AccountUpdate",
      "type": "event"
    },
    {
      "constant": false,
      "inputs": [
        {
          "name": "_organization",
          "type": "address"
        }
      ],
      "name": "addAccountOrganization",
      "outputs": [
        {
          "name": "success",
          "type": "bool"
        }
      ],
      "payable": false,
      "stateMutability": "nonpayable",
      "type": "function"
    },
    {
      "constant": true,
      "inputs": [],
      "name": "getAccountOrganizations",
      "outputs": [
        {
          "name": "organization",
          "type": "address[]"
        }
      ],
      "payable": false,
      "stateMutability": "view",
      "type": "function"
    }
  ],
  "bytecode": "0x6060604052341561000f57600080fd5b6103ae8061001e6000396000f30060606040526004361061004c576000357c0100000000000000000000000000000000000000000000000000000000900463ffffffff1680637746d920146100515780637a336ad2146100bb575b600080fd5b341561005c57600080fd5b61006461010c565b6040518080602001828103825283818151815260200191508051906020019060200280838360005b838110156100a757808201518184015260208101905061008c565b505050509050019250505060405180910390f35b34156100c657600080fd5b6100f2600480803573ffffffffffffffffffffffffffffffffffffffff169060200190919050506101dc565b604051808215151515815260200191505060405180910390f35b61011461031d565b6000803373ffffffffffffffffffffffffffffffffffffffff1673ffffffffffffffffffffffffffffffffffffffff1681526020019081526020016000208054806020026020016040519081016040528092919081815260200182805480156101d257602002820191906000526020600020905b8160009054906101000a900473ffffffffffffffffffffffffffffffffffffffff1673ffffffffffffffffffffffffffffffffffffffff1681526020019060010190808311610188575b5050505050905090565b60008060003373ffffffffffffffffffffffffffffffffffffffff1673ffffffffffffffffffffffffffffffffffffffff168152602001908152602001600020805480600101828161022e9190610331565b9160005260206000209001600084909190916101000a81548173ffffffffffffffffffffffffffffffffffffffff021916908373ffffffffffffffffffffffffffffffffffffffff160217905550507f9deb30fe6e4a8329d7a2695278be9b8990624ee7a27f453a5536978ddc8bcee23383604051808373ffffffffffffffffffffffffffffffffffffffff1673ffffffffffffffffffffffffffffffffffffffff1681526020018273ffffffffffffffffffffffffffffffffffffffff1673ffffffffffffffffffffffffffffffffffffffff1681526020019250505060405180910390a160019050919050565b602060405190810160405280600081525090565b81548183558181151161035857818360005260206000209182019101610357919061035d565b5b505050565b61037f91905b8082111561037b576000816000905550600101610363565b5090565b905600a165627a7a72305820c60940d8291b2d454eabb4974de431693a75fe590a0b0cd5e81823ab55d9c7180029",
  "source": "pragma solidity ^0.4.2;\n\n// Define Account contract\ncontract Account {\n\n  // Map sender to organization addresses\n  mapping (address => address[]) organizations;\n\n  // Notify clients about an updated account\n  event AccountUpdate(address sender, address organization);\n\n  // Add account organizations\n  function addAccountOrganization(address _organization) public returns (bool success) {\n    // Add organization to organizations array\n    organizations[msg.sender].push(_organization);\n    // Emit account update event\n    AccountUpdate(msg.sender, _organization);\n    // Return success\n    return true;\n  }\n\n  // Get account organizations\n  function getAccountOrganizations() public constant returns (address[] organization) {\n    // Return account organizations\n    return organizations[msg.sender];\n  }\n\n}\n",
  "sourcePath": "/Users/Admin/Workspace/projects/choratech/choratech-core/contracts/Account.sol",
  "compiler": {
    "name": "solc",
    "version": "0.4.19+commit.c4cbbb05.Emscripten.clang"
  },
  "schemaVersion": "2.0.0",
  "updatedAt": "2018-03-14T07:41:58.055Z"
}