{
  "contractName": "Organization",
  "abi": [
    {
      "constant": true,
      "inputs": [],
      "name": "checkOwner",
      "outputs": [
        {
          "name": "success",
          "type": "bool"
        }
      ],
      "payable": false,
      "stateMutability": "view",
      "type": "function"
    },
    {
      "inputs": [
        {
          "name": "_owner",
          "type": "address"
        }
      ],
      "payable": false,
      "stateMutability": "nonpayable",
      "type": "constructor"
    },
    {
      "anonymous": false,
      "inputs": [
        {
          "indexed": false,
          "name": "sender",
          "type": "address"
        },
        {
          "indexed": false,
          "name": "name",
          "type": "string"
        }
      ],
      "name": "OrganizationUpdate",
      "type": "event"
    },
    {
      "constant": true,
      "inputs": [],
      "name": "getOrganization",
      "outputs": [
        {
          "name": "name",
          "type": "string"
        },
        {
          "name": "members",
          "type": "address[]"
        }
      ],
      "payable": false,
      "stateMutability": "view",
      "type": "function"
    },
    {
      "constant": false,
      "inputs": [
        {
          "name": "_name",
          "type": "string"
        }
      ],
      "name": "updateOrganizationName",
      "outputs": [
        {
          "name": "success",
          "type": "bool"
        }
      ],
      "payable": false,
      "stateMutability": "nonpayable",
      "type": "function"
    }
  ],
  "bytecode": "0x6060604052341561000f57600080fd5b60405160208061067f83398101604052808051906020019091905050336000806101000a81548173ffffffffffffffffffffffffffffffffffffffff021916908373ffffffffffffffffffffffffffffffffffffffff16021790555080600160006101000a81548173ffffffffffffffffffffffffffffffffffffffff021916908373ffffffffffffffffffffffffffffffffffffffff160217905550506105c3806100bc6000396000f300606060405260043610610057576000357c0100000000000000000000000000000000000000000000000000000000900463ffffffff1680636ce853e61461005c578063abb8e213146100d1578063cdbce03d146101a7575b600080fd5b341561006757600080fd5b6100b7600480803590602001908201803590602001908080601f016020809104026020016040519081016040528093929190818152602001838380828437820191505050505050919050506101d4565b604051808215151515815260200191505060405180910390f35b34156100dc57600080fd5b6100e4610322565b604051808060200180602001838103835285818151815260200191508051906020019080838360005b8381101561012857808201518184015260208101905061010d565b50505050905090810190601f1680156101555780820380516001836020036101000a031916815260200191505b50838103825284818151815260200191508051906020019060200280838360005b83811015610191578082015181840152602081019050610176565b5050505090500194505050505060405180910390f35b34156101b257600080fd5b6101ba610462565b604051808215151515815260200191505060405180910390f35b60003373ffffffffffffffffffffffffffffffffffffffff16600160009054906101000a900473ffffffffffffffffffffffffffffffffffffffff1673ffffffffffffffffffffffffffffffffffffffff1614151561023257600080fd5b81600290805190602001906102489291906104ca565b507fbebbbf1fa8e2d4ae14613c127339be6d2682a7380e5d4ac3716b58753f27136c3383604051808373ffffffffffffffffffffffffffffffffffffffff1673ffffffffffffffffffffffffffffffffffffffff16815260200180602001828103825283818151815260200191508051906020019080838360005b838110156102de5780820151818401526020810190506102c3565b50505050905090810190601f16801561030b5780820380516001836020036101000a031916815260200191505b50935050505060405180910390a160019050919050565b61032a61054a565b61033261055e565b60026003818054600181600116156101000203166002900480601f0160208091040260200160405190810160405280929190818152602001828054600181600116156101000203166002900480156103cb5780601f106103a0576101008083540402835291602001916103cb565b820191906000526020600020905b8154815290600101906020018083116103ae57829003601f168201915b505050505091508080548060200260200160405190810160405280929190818152602001828054801561045357602002820191906000526020600020905b8160009054906101000a900473ffffffffffffffffffffffffffffffffffffffff1673ffffffffffffffffffffffffffffffffffffffff1681526020019060010190808311610409575b50505050509050915091509091565b60003373ffffffffffffffffffffffffffffffffffffffff166000809054906101000a900473ffffffffffffffffffffffffffffffffffffffff1673ffffffffffffffffffffffffffffffffffffffff1614156104c257600190506104c7565b600090505b90565b828054600181600116156101000203166002900490600052602060002090601f016020900481019282601f1061050b57805160ff1916838001178555610539565b82800160010185558215610539579182015b8281111561053857825182559160200191906001019061051d565b5b5090506105469190610572565b5090565b602060405190810160405280600081525090565b602060405190810160405280600081525090565b61059491905b80821115610590576000816000905550600101610578565b5090565b905600a165627a7a7230582045e942a9df99bc80ad46c6fbbe3ea31e35fa6cdc35c0c83dba52268975d6e9240029",
  "source": "pragma solidity ^0.4.2;\n\n// Import Owned contract\nimport \"./Owned.sol\";\n\n// Define Organization Contract\ncontract Organization is Owned {\n\n  // Define organization owner\n  address organizationOwner;\n\n  // Define organization name\n  string organizationName;\n\n  // Define members list\n  address[] membersList;\n\n  // Notify clients about an updated organization\n  event OrganizationUpdate(address sender, string name);\n\n  // Define owner modifier\n  modifier onlyOrganizationOwner {\n    // Require ballot owner is sender\n    require(organizationOwner == msg.sender);\n    // Run function body\n    _;\n  }\n\n  // Define contract constructor\n  function Organization(address _owner) public {\n    // Set organization owner\n    organizationOwner = _owner;\n  }\n\n  // Get organization name and members\n  function getOrganization() public constant returns (string name, address[] members) {\n    // Return organization name and members\n    return (organizationName, membersList);\n  }\n\n  // Update organization name\n  function updateOrganizationName(string _name) public onlyOrganizationOwner returns (bool success) {\n    // Update organization name\n    organizationName = _name;\n    // Emit orgaization update event\n    OrganizationUpdate(msg.sender, _name);\n    // Return success\n    return true;\n  }\n\n}\n",
  "sourcePath": "/Users/Admin/Workspace/projects/choratech/choratech-core/contracts/Organization.sol",
  "compiler": {
    "name": "solc",
    "version": "0.4.19+commit.c4cbbb05.Emscripten.clang"
  },
  "schemaVersion": "2.0.0",
  "updatedAt": "2018-03-14T07:41:55.456Z"
}