{
  "contractName": "Owned",
  "abi": [
    {
      "inputs": [],
      "payable": false,
      "stateMutability": "nonpayable",
      "type": "constructor"
    },
    {
      "constant": true,
      "inputs": [],
      "name": "checkOwner",
      "outputs": [
        {
          "name": "success",
          "type": "bool"
        }
      ],
      "payable": false,
      "stateMutability": "view",
      "type": "function"
    }
  ],
  "bytecode": "0x6060604052341561000f57600080fd5b336000806101000a81548173ffffffffffffffffffffffffffffffffffffffff021916908373ffffffffffffffffffffffffffffffffffffffff1602179055506101008061005e6000396000f300606060405260043610603f576000357c0100000000000000000000000000000000000000000000000000000000900463ffffffff168063cdbce03d146044575b600080fd5b3415604e57600080fd5b6054606e565b604051808215151515815260200191505060405180910390f35b60003373ffffffffffffffffffffffffffffffffffffffff166000809054906101000a900473ffffffffffffffffffffffffffffffffffffffff1673ffffffffffffffffffffffffffffffffffffffff16141560cc576001905060d1565b600090505b905600a165627a7a72305820dfb56c314916ff751d352d41fdf1269a57428b91890c386ea87a02d600c9a83f0029",
  "source": "pragma solidity ^0.4.2;\n\n// Define Owned Contract\ncontract Owned {\n\n  // Define owner\n  address owner;\n\n  // Define owner modifier\n  modifier onlyOwner {\n    // Require sender is owner\n    require(msg.sender == owner);\n    // Run function body\n    _;\n  }\n\n  // Contract constructor\n  function Owned() public {\n    // Set owner to contract creator\n    owner = msg.sender;\n  }\n\n  // check if sender is owner\n  function checkOwner() public constant returns (bool success) {\n    // Set owner to contract creator\n    if (owner == msg.sender) {\n      // Return success\n      return true;\n    }\n    // Return failed\n    return false;\n  }\n\n}\n",
  "sourcePath": "/Users/Admin/Workspace/projects/choratech/choratech-core/contracts/Owned.sol",
  "compiler": {
    "name": "solc",
    "version": "0.4.19+commit.c4cbbb05.Emscripten.clang"
  },
  "schemaVersion": "2.0.0",
  "updatedAt": "2018-03-14T07:41:55.457Z"
}